{
  "_format": "hh-sol-artifact-1",
  "contractName": "FundTracker",
  "sourceName": "contracts/FundTracker.sol",
  "abi": [
    {
      "anonymous": false,
      "inputs": [
        {
          "indexed": true,
          "internalType": "uint256",
          "name": "id",
          "type": "uint256"
        },
        {
          "indexed": false,
          "internalType": "string",
          "name": "sender",
          "type": "string"
        },
        {
          "indexed": false,
          "internalType": "string",
          "name": "receiver",
          "type": "string"
        },
        {
          "indexed": false,
          "internalType": "uint256",
          "name": "amount",
          "type": "uint256"
        },
        {
          "indexed": false,
          "internalType": "uint256",
          "name": "timestamp",
          "type": "uint256"
        }
      ],
      "name": "TransactionAdded",
      "type": "event"
    },
    {
      "inputs": [
        {
          "internalType": "string",
          "name": "sender",
          "type": "string"
        },
        {
          "internalType": "string",
          "name": "receiver",
          "type": "string"
        },
        {
          "internalType": "uint256",
          "name": "amount",
          "type": "uint256"
        },
        {
          "internalType": "uint256",
          "name": "timestamp",
          "type": "uint256"
        }
      ],
      "name": "addTransaction",
      "outputs": [
        {
          "internalType": "uint256",
          "name": "",
          "type": "uint256"
        }
      ],
      "stateMutability": "nonpayable",
      "type": "function"
    },
    {
      "inputs": [],
      "name": "getAllTransactions",
      "outputs": [
        {
          "components": [
            {
              "internalType": "uint256",
              "name": "id",
              "type": "uint256"
            },
            {
              "internalType": "string",
              "name": "sender",
              "type": "string"
            },
            {
              "internalType": "string",
              "name": "receiver",
              "type": "string"
            },
            {
              "internalType": "uint256",
              "name": "amount",
              "type": "uint256"
            },
            {
              "internalType": "uint256",
              "name": "timestamp",
              "type": "uint256"
            },
            {
              "internalType": "bytes32",
              "name": "blockHash",
              "type": "bytes32"
            },
            {
              "internalType": "bool",
              "name": "isFlagged",
              "type": "bool"
            },
            {
              "internalType": "string",
              "name": "reason",
              "type": "string"
            }
          ],
          "internalType": "struct FundTracker.Transaction[]",
          "name": "",
          "type": "tuple[]"
        }
      ],
      "stateMutability": "view",
      "type": "function"
    },
    {
      "inputs": [
        {
          "internalType": "uint256",
          "name": "limit",
          "type": "uint256"
        }
      ],
      "name": "getRecentTransactions",
      "outputs": [
        {
          "components": [
            {
              "internalType": "uint256",
              "name": "id",
              "type": "uint256"
            },
            {
              "internalType": "string",
              "name": "sender",
              "type": "string"
            },
            {
              "internalType": "string",
              "name": "receiver",
              "type": "string"
            },
            {
              "internalType": "uint256",
              "name": "amount",
              "type": "uint256"
            },
            {
              "internalType": "uint256",
              "name": "timestamp",
              "type": "uint256"
            },
            {
              "internalType": "bytes32",
              "name": "blockHash",
              "type": "bytes32"
            },
            {
              "internalType": "bool",
              "name": "isFlagged",
              "type": "bool"
            },
            {
              "internalType": "string",
              "name": "reason",
              "type": "string"
            }
          ],
          "internalType": "struct FundTracker.Transaction[]",
          "name": "",
          "type": "tuple[]"
        }
      ],
      "stateMutability": "view",
      "type": "function"
    },
    {
      "inputs": [
        {
          "internalType": "uint256",
          "name": "id",
          "type": "uint256"
        }
      ],
      "name": "getTransaction",
      "outputs": [
        {
          "components": [
            {
              "internalType": "uint256",
              "name": "id",
              "type": "uint256"
            },
            {
              "internalType": "string",
              "name": "sender",
              "type": "string"
            },
            {
              "internalType": "string",
              "name": "receiver",
              "type": "string"
            },
            {
              "internalType": "uint256",
              "name": "amount",
              "type": "uint256"
            },
            {
              "internalType": "uint256",
              "name": "timestamp",
              "type": "uint256"
            },
            {
              "internalType": "bytes32",
              "name": "blockHash",
              "type": "bytes32"
            },
            {
              "internalType": "bool",
              "name": "isFlagged",
              "type": "bool"
            },
            {
              "internalType": "string",
              "name": "reason",
              "type": "string"
            }
          ],
          "internalType": "struct FundTracker.Transaction",
          "name": "",
          "type": "tuple"
        }
      ],
      "stateMutability": "view",
      "type": "function"
    },
    {
      "inputs": [],
      "name": "transactionCount",
      "outputs": [
        {
          "internalType": "uint256",
          "name": "",
          "type": "uint256"
        }
      ],
      "stateMutability": "view",
      "type": "function"
    }
  ],
  "bytecode": "0x608060405234801561001057600080fd5b506115ab806100206000396000f3fe608060405234801561001057600080fd5b50600436106100575760003560e01c806327506f531461005c57806327d3a00c1461007a57806333ea3dc8146100aa57806379cecf46146100da578063b77bf6001461010a575b600080fd5b610064610128565b6040516100719190610d13565b60405180910390f35b610094600480360381019061008f9190610eaa565b610381565b6040516100a19190610f58565b60405180910390f35b6100c460048036038101906100bf9190610f73565b6104fb565b6040516100d1919061105e565b60405180910390f35b6100f460048036038101906100ef9190610f73565b610775565b6040516101019190610d13565b60405180910390f35b610112610a66565b60405161011f9190610f58565b60405180910390f35b60606000805480602002602001604051908101604052809291908181526020016000905b828210156103785783829060005260206000209060080201604051806101000160405290816000820154815260200160018201805461018a906110af565b80601f01602080910402602001604051908101604052809291908181526020018280546101b6906110af565b80156102035780601f106101d857610100808354040283529160200191610203565b820191906000526020600020905b8154815290600101906020018083116101e657829003601f168201915b5050505050815260200160028201805461021c906110af565b80601f0160208091040260200160405190810160405280929190818152602001828054610248906110af565b80156102955780601f1061026a57610100808354040283529160200191610295565b820191906000526020600020905b81548152906001019060200180831161027857829003601f168201915b505050505081526020016003820154815260200160048201548152602001600582015481526020016006820160009054906101000a900460ff161515151581526020016007820180546102e7906110af565b80601f0160208091040260200160405190810160405280929190818152602001828054610313906110af565b80156103605780601f1061033557610100808354040283529160200191610360565b820191906000526020600020905b81548152906001019060200180831161034357829003601f168201915b5050505050815250508152602001906001019061014c565b50505050905090565b600080600154905060006040518061010001604052808381526020018881526020018781526020018681526020018581526020016001436103c2919061110f565b40815260200160001515815260200160405180602001604052806000815250815250908060018154018082558091505060019003906000526020600020906008020160009091909190915060008201518160000155602082015181600101908161042c91906112ef565b50604082015181600201908161044291906112ef565b50606082015181600301556080820151816004015560a0820151816005015560c08201518160060160006101000a81548160ff02191690831515021790555060e082015181600701908161049691906112ef565b505050600160008154809291906104ac906113c1565b9190505550807ffeed241432bfaeea3502dce6d5d036e4c6449696af15966aebd7fe8df15ee292878787876040516104e79493929190611453565b60405180910390a280915050949350505050565b610503610a6c565b6001548210610547576040517f08c379a000000000000000000000000000000000000000000000000000000000815260040161053e906114f2565b60405180910390fd5b6000828154811061055b5761055a611512565b5b9060005260206000209060080201604051806101000160405290816000820154815260200160018201805461058f906110af565b80601f01602080910402602001604051908101604052809291908181526020018280546105bb906110af565b80156106085780601f106105dd57610100808354040283529160200191610608565b820191906000526020600020905b8154815290600101906020018083116105eb57829003601f168201915b50505050508152602001600282018054610621906110af565b80601f016020809104026020016040519081016040528092919081815260200182805461064d906110af565b801561069a5780601f1061066f5761010080835404028352916020019161069a565b820191906000526020600020905b81548152906001019060200180831161067d57829003601f168201915b505050505081526020016003820154815260200160048201548152602001600582015481526020016006820160009054906101000a900460ff161515151581526020016007820180546106ec906110af565b80601f0160208091040260200160405190810160405280929190818152602001828054610718906110af565b80156107655780601f1061073a57610100808354040283529160200191610765565b820191906000526020600020905b81548152906001019060200180831161074857829003601f168201915b5050505050815250509050919050565b6060600060015490508083111561078a578092505b60008367ffffffffffffffff8111156107a6576107a5610d53565b5b6040519080825280602002602001820160405280156107df57816020015b6107cc610a6c565b8152602001906001900390816107c45790505b50905060005b84811015610a5b5760008186856107fc919061110f565b6108069190611541565b8154811061081757610816611512565b5b9060005260206000209060080201604051806101000160405290816000820154815260200160018201805461084b906110af565b80601f0160208091040260200160405190810160405280929190818152602001828054610877906110af565b80156108c45780601f10610899576101008083540402835291602001916108c4565b820191906000526020600020905b8154815290600101906020018083116108a757829003601f168201915b505050505081526020016002820180546108dd906110af565b80601f0160208091040260200160405190810160405280929190818152602001828054610909906110af565b80156109565780601f1061092b57610100808354040283529160200191610956565b820191906000526020600020905b81548152906001019060200180831161093957829003601f168201915b505050505081526020016003820154815260200160048201548152602001600582015481526020016006820160009054906101000a900460ff161515151581526020016007820180546109a8906110af565b80601f01602080910402602001604051908101604052809291908181526020018280546109d4906110af565b8015610a215780601f106109f657610100808354040283529160200191610a21565b820191906000526020600020905b815481529060010190602001808311610a0457829003601f168201915b505050505081525050828281518110610a3d57610a3c611512565b5b60200260200101819052508080610a53906113c1565b9150506107e5565b508092505050919050565b60015481565b604051806101000160405280600081526020016060815260200160608152602001600081526020016000815260200160008019168152602001600015158152602001606081525090565b600081519050919050565b600082825260208201905092915050565b6000819050602082019050919050565b6000819050919050565b610af581610ae2565b82525050565b600081519050919050565b600082825260208201905092915050565b60005b83811015610b35578082015181840152602081019050610b1a565b60008484015250505050565b6000601f19601f8301169050919050565b6000610b5d82610afb565b610b678185610b06565b9350610b77818560208601610b17565b610b8081610b41565b840191505092915050565b6000819050919050565b610b9e81610b8b565b82525050565b60008115159050919050565b610bb981610ba4565b82525050565b600061010083016000830151610bd86000860182610aec565b5060208301518482036020860152610bf08282610b52565b91505060408301518482036040860152610c0a8282610b52565b9150506060830151610c1f6060860182610aec565b506080830151610c326080860182610aec565b5060a0830151610c4560a0860182610b95565b5060c0830151610c5860c0860182610bb0565b5060e083015184820360e0860152610c708282610b52565b9150508091505092915050565b6000610c898383610bbf565b905092915050565b6000602082019050919050565b6000610ca982610ab6565b610cb38185610ac1565b935083602082028501610cc585610ad2565b8060005b85811015610d015784840389528151610ce28582610c7d565b9450610ced83610c91565b925060208a01995050600181019050610cc9565b50829750879550505050505092915050565b60006020820190508181036000830152610d2d8184610c9e565b905092915050565b6000604051905090565b600080fd5b600080fd5b600080fd5b600080fd5b7f4e487b7100000000000000000000000000000000000000000000000000000000600052604160045260246000fd5b610d8b82610b41565b810181811067ffffffffffffffff82111715610daa57610da9610d53565b5b80604052505050565b6000610dbd610d35565b9050610dc98282610d82565b919050565b600067ffffffffffffffff821115610de957610de8610d53565b5b610df282610b41565b9050602081019050919050565b82818337600083830152505050565b6000610e21610e1c84610dce565b610db3565b905082815260208101848484011115610e3d57610e3c610d4e565b5b610e48848285610dff565b509392505050565b600082601f830112610e6557610e64610d49565b5b8135610e75848260208601610e0e565b91505092915050565b610e8781610ae2565b8114610e9257600080fd5b50565b600081359050610ea481610e7e565b92915050565b60008060008060808587031215610ec457610ec3610d3f565b5b600085013567ffffffffffffffff811115610ee257610ee1610d44565b5b610eee87828801610e50565b945050602085013567ffffffffffffffff811115610f0f57610f0e610d44565b5b610f1b87828801610e50565b9350506040610f2c87828801610e95565b9250506060610f3d87828801610e95565b91505092959194509250565b610f5281610ae2565b82525050565b6000602082019050610f6d6000830184610f49565b92915050565b600060208284031215610f8957610f88610d3f565b5b6000610f9784828501610e95565b91505092915050565b600061010083016000830151610fb96000860182610aec565b5060208301518482036020860152610fd18282610b52565b91505060408301518482036040860152610feb8282610b52565b91505060608301516110006060860182610aec565b5060808301516110136080860182610aec565b5060a083015161102660a0860182610b95565b5060c083015161103960c0860182610bb0565b5060e083015184820360e08601526110518282610b52565b9150508091505092915050565b600060208201905081810360008301526110788184610fa0565b905092915050565b7f4e487b7100000000000000000000000000000000000000000000000000000000600052602260045260246000fd5b600060028204905060018216806110c757607f821691505b6020821081036110da576110d9611080565b5b50919050565b7f4e487b7100000000000000000000000000000000000000000000000000000000600052601160045260246000fd5b600061111a82610ae2565b915061112583610ae2565b925082820390508181111561113d5761113c6110e0565b5b92915050565b60008190508160005260206000209050919050565b60006020601f8301049050919050565b600082821b905092915050565b6000600883026111a57fffffffffffffffffffffffffffffffffffffffffffffffffffffffffffffffff82611168565b6111af8683611168565b95508019841693508086168417925050509392505050565b6000819050919050565b60006111ec6111e76111e284610ae2565b6111c7565b610ae2565b9050919050565b6000819050919050565b611206836111d1565b61121a611212826111f3565b848454611175565b825550505050565b600090565b61122f611222565b61123a8184846111fd565b505050565b5b8181101561125e57611253600082611227565b600181019050611240565b5050565b601f8211156112a35761127481611143565b61127d84611158565b8101602085101561128c578190505b6112a061129885611158565b83018261123f565b50505b505050565b600082821c905092915050565b60006112c6600019846008026112a8565b1980831691505092915050565b60006112df83836112b5565b9150826002028217905092915050565b6112f882610afb565b67ffffffffffffffff81111561131157611310610d53565b5b61131b82546110af565b611326828285611262565b600060209050601f8311600181146113595760008415611347578287015190505b61135185826112d3565b8655506113b9565b601f19841661136786611143565b60005b8281101561138f5784890151825560018201915060208501945060208101905061136a565b868310156113ac57848901516113a8601f8916826112b5565b8355505b6001600288020188555050505b505050505050565b60006113cc82610ae2565b91507fffffffffffffffffffffffffffffffffffffffffffffffffffffffffffffffff82036113fe576113fd6110e0565b5b600182019050919050565b600082825260208201905092915050565b600061142582610afb565b61142f8185611409565b935061143f818560208601610b17565b61144881610b41565b840191505092915050565b6000608082019050818103600083015261146d818761141a565b90508181036020830152611481818661141a565b90506114906040830185610f49565b61149d6060830184610f49565b95945050505050565b7f5472616e73616374696f6e20646f6573206e6f74206578697374000000000000600082015250565b60006114dc601a83611409565b91506114e7826114a6565b602082019050919050565b6000602082019050818103600083015261150b816114cf565b9050919050565b7f4e487b7100000000000000000000000000000000000000000000000000000000600052603260045260246000fd5b600061154c82610ae2565b915061155783610ae2565b925082820190508082111561156f5761156e6110e0565b5b9291505056fea2646970667358221220edf90b66a3a1c53dffec080160cbd86eb2017c0678d5a410f64f454647a6bcaa64736f6c63430008140033",
  "linkReferences": {},
  "deployedLinkReferences": {}
}